{
  "contractName": "PurchaseMarketplace",
  "abi": [
    {
      "inputs": [],
      "stateMutability": "nonpayable",
      "type": "constructor"
    },
    {
      "inputs": [],
      "name": "InvalidState",
      "type": "error"
    },
    {
      "inputs": [],
      "name": "OnlyOwner",
      "type": "error"
    },
    {
      "inputs": [],
      "name": "PurchaseHasOwner",
      "type": "error"
    },
    {
      "inputs": [],
      "name": "PurchaseIsNotCreated",
      "type": "error"
    },
    {
      "inputs": [],
      "name": "SenderIsNotPurchaseOwner",
      "type": "error"
    },
    {
      "inputs": [],
      "name": "isStopped",
      "outputs": [
        {
          "internalType": "bool",
          "name": "",
          "type": "bool"
        }
      ],
      "stateMutability": "view",
      "type": "function",
      "constant": true
    },
    {
      "stateMutability": "payable",
      "type": "receive",
      "payable": true
    },
    {
      "inputs": [
        {
          "internalType": "uint256",
          "name": "amount",
          "type": "uint256"
        }
      ],
      "name": "withdraw",
      "outputs": [],
      "stateMutability": "nonpayable",
      "type": "function"
    },
    {
      "inputs": [],
      "name": "emergencyWithdraw",
      "outputs": [],
      "stateMutability": "nonpayable",
      "type": "function"
    },
    {
      "inputs": [],
      "name": "stopContract",
      "outputs": [],
      "stateMutability": "nonpayable",
      "type": "function"
    },
    {
      "inputs": [],
      "name": "resumeContract",
      "outputs": [],
      "stateMutability": "nonpayable",
      "type": "function"
    },
    {
      "inputs": [
        {
          "internalType": "bytes16",
          "name": "purchaseId",
          "type": "bytes16"
        },
        {
          "internalType": "bytes32",
          "name": "proof",
          "type": "bytes32"
        }
      ],
      "name": "purchasePurchase",
      "outputs": [],
      "stateMutability": "payable",
      "type": "function",
      "payable": true
    },
    {
      "inputs": [
        {
          "internalType": "bytes32",
          "name": "purchaseHash",
          "type": "bytes32"
        }
      ],
      "name": "repurchasePurchase",
      "outputs": [],
      "stateMutability": "payable",
      "type": "function",
      "payable": true
    },
    {
      "inputs": [
        {
          "internalType": "bytes32",
          "name": "purchaseHash",
          "type": "bytes32"
        }
      ],
      "name": "activatePurchase",
      "outputs": [],
      "stateMutability": "nonpayable",
      "type": "function"
    },
    {
      "inputs": [
        {
          "internalType": "bytes32",
          "name": "purchaseHash",
          "type": "bytes32"
        }
      ],
      "name": "deactivatePurchase",
      "outputs": [],
      "stateMutability": "nonpayable",
      "type": "function"
    },
    {
      "inputs": [
        {
          "internalType": "address",
          "name": "newOwner",
          "type": "address"
        }
      ],
      "name": "transferOwnership",
      "outputs": [],
      "stateMutability": "nonpayable",
      "type": "function"
    },
    {
      "inputs": [],
      "name": "getPurchaseCount",
      "outputs": [
        {
          "internalType": "uint256",
          "name": "",
          "type": "uint256"
        }
      ],
      "stateMutability": "view",
      "type": "function",
      "constant": true
    },
    {
      "inputs": [
        {
          "internalType": "uint256",
          "name": "index",
          "type": "uint256"
        }
      ],
      "name": "getPurchaseHashAtIndex",
      "outputs": [
        {
          "internalType": "bytes32",
          "name": "",
          "type": "bytes32"
        }
      ],
      "stateMutability": "view",
      "type": "function",
      "constant": true
    },
    {
      "inputs": [
        {
          "internalType": "bytes32",
          "name": "purchaseHash",
          "type": "bytes32"
        }
      ],
      "name": "getPurchaseByHash",
      "outputs": [
        {
          "components": [
            {
              "internalType": "uint256",
              "name": "id",
              "type": "uint256"
            },
            {
              "internalType": "uint256",
              "name": "price",
              "type": "uint256"
            },
            {
              "internalType": "bytes32",
              "name": "proof",
              "type": "bytes32"
            },
            {
              "internalType": "address",
              "name": "owner",
              "type": "address"
            },
            {
              "internalType": "enum PurchaseMarketplace.State",
              "name": "state",
              "type": "uint8"
            }
          ],
          "internalType": "struct PurchaseMarketplace.Purchase",
          "name": "",
          "type": "tuple"
        }
      ],
      "stateMutability": "view",
      "type": "function",
      "constant": true
    },
    {
      "inputs": [],
      "name": "getContractOwner",
      "outputs": [
        {
          "internalType": "address",
          "name": "",
          "type": "address"
        }
      ],
      "stateMutability": "view",
      "type": "function",
      "constant": true
    }
  ],
  "bytecode": "0x608060405260008060006101000a81548160ff02191690831515021790555034801561002a57600080fd5b5061003a3361003f60201b60201c565b610083565b80600460006101000a81548173ffffffffffffffffffffffffffffffffffffffff021916908373ffffffffffffffffffffffffffffffffffffffff16021790555050565b6118f7806100926000396000f3fe6080604052600436106100e15760003560e01c8063becd283f1161007f578063db2e21bc11610059578063db2e21bc14610263578063e11ba60e1461027a578063efae4406146102a3578063f2fde38b146102e0576100e8565b8063becd283f14610205578063c4bc5da514610230578063d9008ebf14610247576100e8565b80633f683b6a116100bb5780633f683b6a14610149578063442890d5146101745780635048b1c11461019f5780636a8559bc146101dc576100e8565b806312253a6c146100ed5780632e1a7d4d14610104578063349120471461012d576100e8565b366100e857005b600080fd5b3480156100f957600080fd5b50610102610309565b005b34801561011057600080fd5b5061012b600480360381019061012691906113b3565b610391565b005b6101476004803603810190610142919061138a565b6104cf565b005b34801561015557600080fd5b5061015e610696565b60405161016b91906115af565b60405180910390f35b34801561018057600080fd5b506101896106a7565b6040516101969190611594565b60405180910390f35b3480156101ab57600080fd5b506101c660048036038101906101c1919061138a565b6106d1565b6040516101d39190611625565b60405180910390f35b3480156101e857600080fd5b5061020360048036038101906101fe919061138a565b6107f9565b005b34801561021157600080fd5b5061021a6109e5565b6040516102279190611640565b60405180910390f35b34801561023c57600080fd5b506102456109ef565b005b610261600480360381019061025c919061134e565b610a77565b005b34801561026f57600080fd5b50610278610c7c565b005b34801561028657600080fd5b506102a1600480360381019061029c919061138a565b610dd0565b005b3480156102af57600080fd5b506102ca60048036038101906102c591906113b3565b61109b565b6040516102d791906115ca565b60405180910390f35b3480156102ec57600080fd5b5061030760048036038101906103029190611325565b6110b8565b005b6103116106a7565b73ffffffffffffffffffffffffffffffffffffffff163373ffffffffffffffffffffffffffffffffffffffff1614610375576040517f5fc483c500000000000000000000000000000000000000000000000000000000815260040160405180910390fd5b60016000806101000a81548160ff021916908315150217905550565b6103996106a7565b73ffffffffffffffffffffffffffffffffffffffff163373ffffffffffffffffffffffffffffffffffffffff16146103fd576040517f5fc483c500000000000000000000000000000000000000000000000000000000815260040160405180910390fd5b6000600460009054906101000a900473ffffffffffffffffffffffffffffffffffffffff1673ffffffffffffffffffffffffffffffffffffffff16826040516104459061157f565b60006040518083038185875af1925050503d8060008114610482576040519150601f19603f3d011682016040523d82523d6000602084013e610487565b606091505b50509050806104cb576040517f08c379a00000000000000000000000000000000000000000000000000000000081526004016104c290611605565b60405180910390fd5b5050565b60008054906101000a900460ff16156104e757600080fd5b6104f081611130565b610526576040517f58ffc7f100000000000000000000000000000000000000000000000000000000815260040160405180910390fd5b61052f8161119f565b610565576040517fc274f87700000000000000000000000000000000000000000000000000000000815260040160405180910390fd5b60006001600083815260200190815260200160002090506002808111156105b5577f4e487b7100000000000000000000000000000000000000000000000000000000600052602160045260246000fd5b8160030160149054906101000a900460ff1660028111156105ff577f4e487b7100000000000000000000000000000000000000000000000000000000600052602160045260246000fd5b14610636576040517fbaf3f0f700000000000000000000000000000000000000000000000000000000815260040160405180910390fd5b60008160030160146101000a81548160ff02191690836002811115610684577f4e487b7100000000000000000000000000000000000000000000000000000000600052602160045260246000fd5b02179055503481600101819055505050565b60008054906101000a900460ff1681565b6000600460009054906101000a900473ffffffffffffffffffffffffffffffffffffffff16905090565b6106d9611251565b600160008381526020019081526020016000206040518060a00160405290816000820154815260200160018201548152602001600282015481526020016003820160009054906101000a900473ffffffffffffffffffffffffffffffffffffffff1673ffffffffffffffffffffffffffffffffffffffff1673ffffffffffffffffffffffffffffffffffffffff1681526020016003820160149054906101000a900460ff1660028111156107b6577f4e487b7100000000000000000000000000000000000000000000000000000000600052602160045260246000fd5b60028111156107ee577f4e487b7100000000000000000000000000000000000000000000000000000000600052602160045260246000fd5b815250509050919050565b60008054906101000a900460ff161561081157600080fd5b6108196106a7565b73ffffffffffffffffffffffffffffffffffffffff163373ffffffffffffffffffffffffffffffffffffffff161461087d576040517f5fc483c500000000000000000000000000000000000000000000000000000000815260040160405180910390fd5b61088681611130565b6108bc576040517f58ffc7f100000000000000000000000000000000000000000000000000000000815260040160405180910390fd5b60006001600083815260200190815260200160002090506000600281111561090d577f4e487b7100000000000000000000000000000000000000000000000000000000600052602160045260246000fd5b8160030160149054906101000a900460ff166002811115610957577f4e487b7100000000000000000000000000000000000000000000000000000000600052602160045260246000fd5b1461098e576040517fbaf3f0f700000000000000000000000000000000000000000000000000000000815260040160405180910390fd5b60018160030160146101000a81548160ff021916908360028111156109dc577f4e487b7100000000000000000000000000000000000000000000000000000000600052602160045260246000fd5b02179055505050565b6000600354905090565b6109f76106a7565b73ffffffffffffffffffffffffffffffffffffffff163373ffffffffffffffffffffffffffffffffffffffff1614610a5b576040517f5fc483c500000000000000000000000000000000000000000000000000000000815260040160405180910390fd5b60008060006101000a81548160ff021916908315150217905550565b60008054906101000a900460ff1615610a8f57600080fd5b60008233604051602001610aa4929190611553565b604051602081830303815290604052805190602001209050610ac58161119f565b15610afc576040517fb2f7099d00000000000000000000000000000000000000000000000000000000815260040160405180910390fd5b600060036000815480929190610b119061171a565b9190505590508160026000838152602001908152602001600020819055506040518060a001604052808281526020013481526020018481526020013373ffffffffffffffffffffffffffffffffffffffff16815260200160006002811115610ba2577f4e487b7100000000000000000000000000000000000000000000000000000000600052602160045260246000fd5b8152506001600084815260200190815260200160002060008201518160000155602082015181600101556040820151816002015560608201518160030160006101000a81548173ffffffffffffffffffffffffffffffffffffffff021916908373ffffffffffffffffffffffffffffffffffffffff16021790555060808201518160030160146101000a81548160ff02191690836002811115610c6e577f4e487b7100000000000000000000000000000000000000000000000000000000600052602160045260246000fd5b021790555090505050505050565b60008054906101000a900460ff16610c9357600080fd5b610c9b6106a7565b73ffffffffffffffffffffffffffffffffffffffff163373ffffffffffffffffffffffffffffffffffffffff1614610cff576040517f5fc483c500000000000000000000000000000000000000000000000000000000815260040160405180910390fd5b6000600460009054906101000a900473ffffffffffffffffffffffffffffffffffffffff1673ffffffffffffffffffffffffffffffffffffffff1647604051610d479061157f565b60006040518083038185875af1925050503d8060008114610d84576040519150601f19603f3d011682016040523d82523d6000602084013e610d89565b606091505b5050905080610dcd576040517f08c379a0000000000000000000000000000000000000000000000000000000008152600401610dc490611605565b60405180910390fd5b50565b60008054906101000a900460ff1615610de857600080fd5b610df06106a7565b73ffffffffffffffffffffffffffffffffffffffff163373ffffffffffffffffffffffffffffffffffffffff1614610e54576040517f5fc483c500000000000000000000000000000000000000000000000000000000815260040160405180910390fd5b610e5d81611130565b610e93576040517f58ffc7f100000000000000000000000000000000000000000000000000000000815260040160405180910390fd5b600060016000838152602001908152602001600020905060006002811115610ee4577f4e487b7100000000000000000000000000000000000000000000000000000000600052602160045260246000fd5b8160030160149054906101000a900460ff166002811115610f2e577f4e487b7100000000000000000000000000000000000000000000000000000000600052602160045260246000fd5b14610f65576040517fbaf3f0f700000000000000000000000000000000000000000000000000000000815260040160405180910390fd5b60008160030160009054906101000a900473ffffffffffffffffffffffffffffffffffffffff1673ffffffffffffffffffffffffffffffffffffffff168260010154604051610fb39061157f565b60006040518083038185875af1925050503d8060008114610ff0576040519150601f19603f3d011682016040523d82523d6000602084013e610ff5565b606091505b5050905080611039576040517f08c379a0000000000000000000000000000000000000000000000000000000008152600401611030906115e5565b60405180910390fd5b60028260030160146101000a81548160ff02191690836002811115611087577f4e487b7100000000000000000000000000000000000000000000000000000000600052602160045260246000fd5b021790555060008260010181905550505050565b600060026000838152602001908152602001600020549050919050565b6110c06106a7565b73ffffffffffffffffffffffffffffffffffffffff163373ffffffffffffffffffffffffffffffffffffffff1614611124576040517f5fc483c500000000000000000000000000000000000000000000000000000000815260040160405180910390fd5b61112d8161120d565b50565b60008073ffffffffffffffffffffffffffffffffffffffff166001600084815260200190815260200160002060030160009054906101000a900473ffffffffffffffffffffffffffffffffffffffff1673ffffffffffffffffffffffffffffffffffffffff1614159050919050565b60003373ffffffffffffffffffffffffffffffffffffffff166001600084815260200190815260200160002060030160009054906101000a900473ffffffffffffffffffffffffffffffffffffffff1673ffffffffffffffffffffffffffffffffffffffff16149050919050565b80600460006101000a81548173ffffffffffffffffffffffffffffffffffffffff021916908373ffffffffffffffffffffffffffffffffffffffff16021790555050565b6040518060a00160405280600081526020016000815260200160008019168152602001600073ffffffffffffffffffffffffffffffffffffffff168152602001600060028111156112cb577f4e487b7100000000000000000000000000000000000000000000000000000000600052602160045260246000fd5b81525090565b6000813590506112e081611865565b92915050565b6000813590506112f58161187c565b92915050565b60008135905061130a81611893565b92915050565b60008135905061131f816118aa565b92915050565b60006020828403121561133757600080fd5b6000611345848285016112d1565b91505092915050565b6000806040838503121561136157600080fd5b600061136f858286016112e6565b9250506020611380858286016112fb565b9150509250929050565b60006020828403121561139c57600080fd5b60006113aa848285016112fb565b91505092915050565b6000602082840312156113c557600080fd5b60006113d384828501611310565b91505092915050565b6113e581611677565b82525050565b6113f481611677565b82525050565b61140b61140682611677565b611763565b82525050565b61141a81611689565b82525050565b61143161142c82611695565b611775565b82525050565b611440816116c1565b82525050565b61144f816116c1565b82525050565b61145e81611708565b82525050565b6000611471601083611666565b915061147c826117fc565b602082019050919050565b600061149460008361165b565b915061149f82611825565b600082019050919050565b60006114b7601083611666565b91506114c282611828565b602082019050919050565b60a0820160008201516114e36000850182611535565b5060208201516114f66020850182611535565b5060408201516115096040850182611437565b50606082015161151c60608501826113dc565b50608082015161152f6080850182611455565b50505050565b61153e816116fe565b82525050565b61154d816116fe565b82525050565b600061155f8285611420565b60108201915061156f82846113fa565b6014820191508190509392505050565b600061158a82611487565b9150819050919050565b60006020820190506115a960008301846113eb565b92915050565b60006020820190506115c46000830184611411565b92915050565b60006020820190506115df6000830184611446565b92915050565b600060208201905081810360008301526115fe81611464565b9050919050565b6000602082019050818103600083015261161e816114aa565b9050919050565b600060a08201905061163a60008301846114cd565b92915050565b60006020820190506116556000830184611544565b92915050565b600081905092915050565b600082825260208201905092915050565b6000611682826116de565b9050919050565b60008115159050919050565b60007fffffffffffffffffffffffffffffffff0000000000000000000000000000000082169050919050565b6000819050919050565b60008190506116d982611851565b919050565b600073ffffffffffffffffffffffffffffffffffffffff82169050919050565b6000819050919050565b6000611713826116cb565b9050919050565b6000611725826116fe565b91507fffffffffffffffffffffffffffffffffffffffffffffffffffffffffffffffff82141561175857611757611791565b5b600182019050919050565b600061176e8261177f565b9050919050565b6000819050919050565b600061178a826117ef565b9050919050565b7f4e487b7100000000000000000000000000000000000000000000000000000000600052601160045260246000fd5b7f4e487b7100000000000000000000000000000000000000000000000000000000600052602160045260246000fd5b60008160601b9050919050565b7f5472616e73666572206661696c65642100000000000000000000000000000000600082015250565b50565b7f5472616e73666572206661696c65642e00000000000000000000000000000000600082015250565b60038110611862576118616117c0565b5b50565b61186e81611677565b811461187957600080fd5b50565b61188581611695565b811461189057600080fd5b50565b61189c816116c1565b81146118a757600080fd5b50565b6118b3816116fe565b81146118be57600080fd5b5056fea2646970667358221220c6aa4adb63eb6f5daa0c35700d5552db32f61e4c2ea59ac705643439767c07e564736f6c63430008040033",
  "immutableReferences": {},
  "source": "// SPDX-License-Identifier: MIT\npragma solidity >=0.4.22 <0.9.0;\n\ncontract PurchaseMarketplace {\n\n  enum State {\n    Purchased,\n    Activated,\n    Deactivated\n  }\n\n  struct Purchase {\n    uint id; // 32\n    uint price; // 32\n    bytes32 proof; // 32\n    address owner; // 20\n    State state; // 1\n  }\n\n  bool public isStopped = false;\n\n  // mapping of purchaseHash to Purchase data\n  mapping(bytes32 => Purchase) private ownedPurchases;\n\n  // mapping of purchaseID to purchaseHash\n  mapping(uint => bytes32) private ownedPurchaseHash;\n\n  // number of all purchases + id of the purchase\n  uint private totalOwnedPurchases;\n\n  address payable private owner;\n\n  constructor() {\n    setContractOwner(msg.sender);\n  }\n\n  /// Purchase has invalid state!\n  error InvalidState();\n\n  /// Purchase is not created!\n  error PurchaseIsNotCreated();\n\n  /// Purchase has already a Owner!\n  error PurchaseHasOwner();\n\n  /// Sender is not purchase owner!\n  error SenderIsNotPurchaseOwner();\n\n  /// Only owner has an access!\n  error OnlyOwner();\n\n  modifier onlyOwner() {\n    if (msg.sender != getContractOwner()) {\n      revert OnlyOwner();\n    }\n    _;\n  }\n\n  modifier onlyWhenNotStopped {\n    require(!isStopped);\n    _;\n  }\n\n  modifier onlyWhenStopped {\n    require(isStopped);\n    _;\n  }\n\n  receive() external payable {}\n\n  function withdraw(uint amount)\n    external\n    onlyOwner\n  {\n    (bool success, ) = owner.call{value: amount}(\"\");\n    require(success, \"Transfer failed.\");\n  }\n\n  function emergencyWithdraw()\n    external\n    onlyWhenStopped\n    onlyOwner\n  {\n    (bool success, ) = owner.call{value: address(this).balance}(\"\");\n    require(success, \"Transfer failed.\");\n  }\n\n  function stopContract()\n    external\n    onlyOwner\n  {\n    isStopped = true;\n  }\n\n  function resumeContract()\n    external\n    onlyOwner\n  {\n    isStopped = false;\n  }\n\n  function purchasePurchase(\n    bytes16 purchaseId, // 0x00000000000000000000000000003130\n    bytes32 proof // 0x0000000000000000000000000000313000000000000000000000000000003130\n  )\n    external\n    payable\n    onlyWhenNotStopped\n  {\n    bytes32 purchaseHash = keccak256(abi.encodePacked(purchaseId, msg.sender));\n\n    if (hasPurchaseOwnership(purchaseHash)) {\n      revert PurchaseHasOwner();\n    }\n\n    uint id = totalOwnedPurchases++;\n\n    ownedPurchaseHash[id] = purchaseHash;\n    ownedPurchases[purchaseHash] = Purchase({\n      id: id,\n      price: msg.value,\n      proof: proof,\n      owner: msg.sender,\n      state: State.Purchased\n    });\n  }\n\n  function repurchasePurchase(bytes32 purchaseHash)\n    external\n    payable\n    onlyWhenNotStopped\n  {\n    if (!isPurchaseCreated(purchaseHash)) {\n      revert PurchaseIsNotCreated();\n    }\n\n    if (!hasPurchaseOwnership(purchaseHash)) {\n      revert SenderIsNotPurchaseOwner();\n    }\n\n    Purchase storage purchase = ownedPurchases[purchaseHash];\n\n    if (purchase.state != State.Deactivated) {\n      revert InvalidState();\n    }\n\n    purchase.state = State.Purchased;\n    purchase.price = msg.value;\n  }\n\n  function activatePurchase(bytes32 purchaseHash)\n    external\n    onlyWhenNotStopped\n    onlyOwner\n  {\n    if (!isPurchaseCreated(purchaseHash)) {\n      revert PurchaseIsNotCreated();\n    }\n\n    Purchase storage purchase = ownedPurchases[purchaseHash];\n\n    if (purchase.state != State.Purchased) {\n      revert InvalidState();\n    }\n\n    purchase.state = State.Activated;\n  }\n\n  function deactivatePurchase(bytes32 purchaseHash)\n    external\n    onlyWhenNotStopped\n    onlyOwner\n  {\n    if (!isPurchaseCreated(purchaseHash)) {\n      revert PurchaseIsNotCreated();\n    }\n\n    Purchase storage purchase = ownedPurchases[purchaseHash];\n\n    if (purchase.state != State.Purchased) {\n      revert InvalidState();\n    }\n\n    (bool success, ) = purchase.owner.call{value: purchase.price}(\"\");\n    require(success, \"Transfer failed!\");\n\n    purchase.state = State.Deactivated;\n    purchase.price = 0;\n  }\n\n  function transferOwnership(address newOwner)\n    external\n    onlyOwner\n  {\n    setContractOwner(newOwner);\n  }\n\n  function getPurchaseCount()\n    external\n    view\n    returns (uint)\n  {\n    return totalOwnedPurchases;\n  }\n\n  function getPurchaseHashAtIndex(uint index)\n    external\n    view\n    returns (bytes32)\n  {\n    return ownedPurchaseHash[index];\n  }\n\n  function getPurchaseByHash(bytes32 purchaseHash)\n    external\n    view\n    returns (Purchase memory)\n  {\n    return ownedPurchases[purchaseHash];\n  }\n\n  function getContractOwner()\n    public\n    view\n    returns (address)\n  {\n    return owner;\n  }\n\n  function setContractOwner(address newOwner) private {\n    owner = payable(newOwner);\n  }\n\n  function isPurchaseCreated(bytes32 purchaseHash)\n    private\n    view\n    returns (bool)\n  {\n    return ownedPurchases[purchaseHash].owner != 0x0000000000000000000000000000000000000000;\n  }\n\n  function hasPurchaseOwnership(bytes32 purchaseHash)\n    private\n    view\n    returns (bool)\n  {\n    return ownedPurchases[purchaseHash].owner == msg.sender;\n  }\n}\n",
  "sourcePath": "/Users/nikolay/Desktop/web/Blockchaine/PaydaMarket/test/eth-marketplace-course-main/contracts/PurchaseMarketplace.sol",
  "compiler": {
    "name": "solc",
    "version": "0.8.4+commit.c7e474f2.Emscripten.clang"
  },
  "schemaVersion": "3.4.14",
  "updatedAt": "2023-07-20T14:00:35.970Z",
  "networkType": "ethereum",
  "devdoc": {
    "kind": "dev",
    "methods": {},
    "version": 1
  },
  "userdoc": {
    "errors": {
      "InvalidState()": [
        {
          "notice": "Purchase has invalid state!"
        }
      ],
      "OnlyOwner()": [
        {
          "notice": "Only owner has an access!"
        }
      ],
      "PurchaseHasOwner()": [
        {
          "notice": "Purchase has already a Owner!"
        }
      ],
      "PurchaseIsNotCreated()": [
        {
          "notice": "Purchase is not created!"
        }
      ],
      "SenderIsNotPurchaseOwner()": [
        {
          "notice": "Sender is not purchase owner!"
        }
      ]
    },
    "kind": "user",
    "methods": {},
    "version": 1
  }
}